:100000000A128A11F72F00308A000408840A820736
:1000100000343F3406345B344F3466346D347D3401
:0600200007347F346F3449
:100D2A00F501F31F992E9A2EA12EF209F309F20A60
:100D3A000319F30A0130F500F11FA42EA52EAA2EDD
:100D4A00F009F109F00A0319F10A7008710403198C
:100D5A00AF2EB02EDD2E0130F400BC2E0130031070
:100D6A00F00DF10DFF3E031DB42E0130F407F11F03
:100D7A00BF2EC02EB32E71087302031DC62E700833
:100D8A007202031CC92ECA2ED02E7008F2027108F4
:100D9A00031CF303F30201300310F10CF00CFF3EC5
:100DAA00031DD12E0130F402031DDC2EDD2EC02ED0
:100DBA0075080319E12EE22EE72EF209F309F20A69
:100DCA000319F30A7308F1007208F0000800F5012C
:100DDA00F11FF02EF12EF82EF009F109F00A03198D
:100DEA00F10A0130F500F31FFB2EFC2E032FF20946
:100DFA00F309F20A0319F30A0130F506F601F701BD
:100E0A007008710403190A2F0B2F402F0130F400C8
:100E1A00172F01300310F00DF10DFF3E031D0F2FA8
:100E2A000130F407F11F1A2F1B2F0E2F0130031068
:100E3A00F60DF70DFF3E031D1C2F71087302031DEB
:100E4A00282F70087202031C2B2F2C2F332F7008A7
:100E5A00F2027108031CF303F30276140130031043
:100E6A00F10CF00CFF3E031D342F0130F402031D78
:100E7A003F2F402F1B2F75080319442F452F4A2F48
:100E8A00F609F709F60A0319F70A7708F10076084E
:100E9A00F0000800831603178801890183160313DB
:100EAA0001087F398100FF3086008801870183129B
:100EBA000313870188018601FC010618652F662F36
:100ECA00822F3430F900F130F800F80B6A2FF90B51
:100EDA006A2F6F2F831203130618742F752F822F10
:100EEA000130FC0764307C02031C7C2F7D2F7E2F8F
:100EFA00FC01061C812F822F7E2F8618852F862FB4
:100F0A00A32F3430F900F130F800F80B8A2FF90BCF
:100F1A008A2F8F2F831203138618942F952FA32FAE
:100F2A007C08031D992F9A2F9D2F6330FC009F2F59
:100F3A000130FC02861CA22FA32F9F2F0619A62F71
:100F4A00A72FBB2F3430F900F130F800F80BAB2F84
:100F5A00F90BAB2FB02F831203130619B52FB62F37
:100F6A00BB2FFC01061DBA2FBB2FB72F0A30F0008A
:100F7A000030F1007C08F800F9017808F2007908DD
:100F8A00F3000A128A11EC260A128A117008FB0071
:100F9A000A30F0000030F1007C08F800F901780806
:100FAA00F2007908F3000A128A1195260A128A11A8
:100FBA007008FA007B08013E84000A128A11032095
:100FCA000A128A118312031388007A08013E8400E8
:100FDA000A128A1103200A128A118700622F0A1242
:100FEA008A110028FD0183120313A001A1018301C4
:060FFA000A128A114F2FBC
:04400E00F12FFF3F50
:00000001FF
